S012000050584C3620312E3132612E73726563A5
S3150800000040040020E11300084B0F0008DF0F00082A
S3150800001000000000000000000000000000000000D2
S315080000200000000000000000000000001F12000889
S315080000300000000000000000BF1300084912000875
S31508000040CB13000800000000FD130008FF1300088A
S315080000500114000803140008051400080714000812
S3150800006000000000091400080B1400080D1400080D
S315080000700F140008111400081314000800000000EB
S3150800008015140008000000000000000017140008FE
S3150800009000000000191400081B1400081D140008AD
S315080000A0000000001F1400080000000021140008CA
S315080000B030B591B0022404940120079010200890CE
S315080000C00D9400250E95A02080030F90109504A886
S315080000D000F0E8FB002801D0072000900194029563
S315080000E003950121684600F0A3FD002807D000F01B
S315080000F09DFEFA21890000F0D1FE00F044FF04209D
S3150800010000F055FF002200210020C04300F037FF11
S3150800011011B030BDF0B5334880210901016132497B
S3150800012080220A6013020360D30003612F4C002566
S31508000130257025891701EE0702D51602066001E02B
S31508000140160206610360036126780F2E01D1076047
S3150800015007616D08761C2670F6B2102EEBDB25813A
S315080001600A61F0BDF0B51F4810210161490101601F
S315080001701D4A02231360012313611C4C00252570B8
S3150800018025891027EE0702D50226166001E0022609
S3150800019016611360136126780F2E01D10760076177
S315080001A06D08761C2670F6B2102EEBDB25810161F0
S315080001B0F0BD00B585B02020009000200190029087
S315080001C009E000B585B020200090012001900020AC
S315080001D00290032003906946054800F001FF05B028
S315080001E000BD000018000048180400480000002060
S315080001F000040048F8B50027104CA761E761902570
S31508000200ED054021280000F0B0FF012804D1A069BF
S31508000210401CA061FB28F4D34021280000F0A5FF6C
S31508000220002800D0B1E1E069401CE061A178022213
S315080002300126102904D1AA6132E000BF000000207F
S31508000240E3890A2901D1012B0EE00B2901D1022BE2
S315080002500AE00C2901D1032B06E00D2901D1042B54
S3150800026002E00E2902D1052B1AD103E00F2904D189
S31508000270062B15D1AA61E78112E0442910D112286C
S315080002800ED10121280000F070FF012801D1E67186
S3150800029006E00121280000F068FF002800D1E77178
S315080002A0A078452811D1E06912280ED1012128002D
S315080002B000F05BFF012801D1A67106E001212800A4
S315080002C000F053FF002800D1A771A0788C2825D10B
S315080002D0E069122822D10121280000F046FF0128F2
S315080002E003D170022081608114E00121280000F00A
S315080002F03CFF002812D1E078012806D1B0022081FF
S315080003006081FFF707FF60892081E078002805D122
S3150800031027816781FFF7FEFE60892081A0788D28F6
S3150800032026D1E069122823D10121280000F01DFFFB
S31508000330012803D12089401C208114E001212800CE
S3150800034000F013FF002813D1E078012807D120898F
S31508000350801C20816081FFF7DDFE60892081E078BE
S31508000360002805D120896081FFF7D4FE60892081A5
S31508000370A0788E2825D1E069122822D101212800EB
S3150800038000F0F3FE012803D1F0022081A08114E0D9
S315080003900121280000F0E9FE002812D1E0780128A2
S315080003A006D130032081A081FFF7DCFEA0892081D9
S315080003B0E078002805D12781A781FFF7D3FEA08919
S315080003C02081A0788F2827D1E069122824D101211D
S315080003D0280000F0CAFE012803D12089B10340187D
S315080003E00BE00121280000F0C0FE00280BD1E078C0
S315080003F0012808D12089F103401A2081A081FFF73E
S31508000400B1FEA0892081E078002805D12089A08145
S31508000410FFF7A8FEA0892081A078902825D1E06959
S31508000420122822D10121280000F09FFE012802D1BE
S315080004302089801C0AE00121280000F096FE002889
S315080004400AD1E078012807D12089001D2081A081E2
S31508000450FFF788FEA0892081E078002805D1208949
S31508000460A081FFF77FFEA0892081A078912826D158
S31508000470E069122823D10121280000F076FE012820
S3150800048003D120891030208114E00121280000F0D2
S315080004906CFE002813D1E078012807D12089203086
S315080004A02081A081FFF75EFEA0892081E0780028E0
S315080004B005D12089A081FFF755FEA0892081A07863
S315080004C0942811D1E06912280ED10121280000F0E4
S315080004D04CFE012801D1E67006E00121280000F053
S315080004E044FE002800D1E770A078952811D1E0696C
S315080004F012280ED10121280000F037FE012801D16B
S31508000500267106E00121280000F02FFE002800D100
S315080005102771E078012800D000202279511E8941F0
S31508000520C90F6279012A00D0002201400A400BD087
S3150800053067820620A08200F07AF8102060820620E2
S31508000540A08200F074F86771E078012800D00020D6
S315080005502179012900D0002163795A1E9241D20FD0
S3150800056001400A400BD067821F20A08200F05FF886
S31508000570102060821F20A08200F059F86671E06999
S31508000580FF21BA31884200D246E6F1BD70B5002493
S31508000590B74D6C70AC61EC619026F60540213000D1
S315080005A000F0E3FD01283DD14021300000F0DDFDDB
S315080005B0012804D1A869401CA861A128F4D3A86918
S315080005C05B383B282ED24021300000F0CEFD0028B3
S315080005D006D1E869401CE861FF212E318842F2D332
S315080005E0AC61E8691D381F2803D370BDA869401C93
S315080005F0A8614021300000F0B8FD0128F6D0EC6172
S31508000600A8695B383B2802D30AE0401CE861402110
S31508000610300000F0AAFD002802D1E869C828F4D302
S315080006200120687070BD0620924908707047F8B5B9
S315080006308F4C5C202082904D20272F60FFF7F3FF18
S3150800064040262E60FFF7EFFF2F61FFF7ECFF2E61C4
S3150800065000202070207C000601D52F6000E02F6165
S31508000660FFF7E1FF2E60FFF7DEFF2E61FFF7DBFFE6
S31508000670208A40002082FFF7D6FF2078401C207091
S31508000680C0B20828E6DBFFF794FD2E60FFF7CBFF24
S315080006902E61FFF7C8FFFFF794FD608A20820020CD
S315080006A02070207C000601D52F6000E02F61FFF73F
S315080006B0BAFF2E60FFF7B7FF2E61FFF7B4FF208A57
S315080006C040002082FFF7AFFF2078401C2070C0B2A0
S315080006D00828E6DBFFF76DFD2E60FFF7A4FF2E6105
S315080006E0FFF7A1FFFFF76DFDA08A2082002020708A
S315080006F0207C000601D52F6000E02F61FFF793FFED
S315080007002E60FFF790FF2E61FFF78DFF208A4000CD
S315080007102082FFF788FF2078401C2070C0B2082886
S31508000720E6DBFFF746FD2E60FFF77DFF2E61FFF73C
S315080007307AFFFFF746FD2F61FFF775FF2E60FFF77B
S3150800074072FF2F60FFF76FFF2E61FFF76CFFF1BD99
S31508000750F0B587B000F01CFDFFF7AAFC80208002E8
S3150800076046490A6802430A600A68104000900098E1
S315080007708020C0020A6802430A600968084000909F
S3150800078000983F48019000270297039701A99020F7
S31508000790C00500F025FC3B4801900124029403970C
S315080007A00325049501A99020C00500F019FC18201E
S315080007B0019002970397344E01A9300000F010FC0F
S315080007C0E320019002940397049501A9300000F0F4
S315080007D007FC2E480068FA21890000F05FFB401EDE
S315080007E0210688423AD22A4948602A4802681202F3
S315080007F0120AC0231B06134303608F600720086094
S315080008001B4C25482081FFF785FC24482081FFF7EB
S31508000810A9FCE770277102259020C00585626782CA
S315080008200626A682FFF703FF10206082A682FFF73E
S31508000830FEFE6771A771E771FFF7A8FE60780128C9
S31508000840FAD1A770FFF7D6FC9020C0058562A0787C
S31508000850401CA070C0B29D28EEDAF3E7FEE7104808
S315080008600168002902D00168491E0160704700002E
S31508000870000000203C000020180400481410024024
S315080008806D100000128F00000004004830000020A0
S3150800089010E000E020ED00E00204000024900000D3
S315080008A034000020F8B50400984D2078C00760D5BC
S315080008B08027BF0268680C210140042907D06868B0
S315080008C00C21014008290AD16868C00307D52868A1
S315080008D007404ED0606800284BD10120F2BD286839
S315080008E08B490140296028688A490140296000F03F
S315080008F073FC06002868384006D000F06DFC801BA3
S3150800090085498842F6D38DE16068012809D0002818
S3150800091001D1286809E00528286806D1790001432D
S31508000920296028687908014305E07949014029606A
S315080009302868784901402960606800280CD000F0D2
S315080009404BFC06002868384013D100F045FC801B94
S3150800095071498842F6D365E100F03EFC0600286836
S31508000960384006D000F038FC801B6B498842F6D325
S3150800097058E102272068384018D068680C210140E1
S3150800098007D068680C210140082925D16868C0038A
S3150800099022D42868384002D0E06801289DD128680A
S315080009A0F82188432169C900014329602078000796
S315080009B043D5206A0028686A30D00121014369625C
S315080009C000F00AFC0600686A384036D100F004FCDC
S315080009D0801B6528F7D325E1E068002828680ED033
S315080009E001210143296000F0F7FB0600286838401A
S315080009F0D5D100F0F1FB801B6528F7D312E1012160
S31508000A008843286000F0E8FB060028683840CDD007
S31508000A1000F0E2FB801B6528F7D303E10121884338
S31508000A20686200F0D9FB0600686A384005D000F015
S31508000A30D3FB801B6528F7D3F4E0207840076DD5F3
S31508000A40F806E9690143E961E969084000900098F8
S31508000A5076480068A90D01437448016000F0BCFBA4
S31508000A60060072480068C00505D400F0B5FB801B77
S31508000A706528F6D3D6E0286A012188432862286AC1
S31508000A8004218843286200F0A7FB0600286A38403C
S31508000A9006D000F0A1FB801B1F498842F6D3C1E0AF
S31508000AA0A068012809D0002801D1286A0AE005288B
S31508000AB0286A07D1042101432962286A01210143D2
S31508000AC0296206E0012188432862286A04218843AE
S31508000AD02862A06800280CD000F07EFB0600286A71
S31508000AE038401BD100F078FB801B0B498842F6D3AF
S31508000AF098E000F071FB0600286A38400ED000F036
S31508000B006BFB801B04498842F6D38BE00010024039
S31508000B10FFFFFEFFFFFFFBFF891300002078C006DA
S31508000B201DD56069012836D1686B042101436963C4
S31508000B30686B01210143696300F04EFB0600686B90
S31508000B40384005D100F048FB801B6528F7D369E0DB
S31508000B50686BF8218843A169C90001436963606A23
S31508000B60002861D069680C220A40082A00D1B4E638
S31508000B703F0698490228286847D10140296000F0B5
S31508000B802BFB06002868384021D000F025FB801B87
S31508000B906528F7D346E00421C9438842686B03D128
S31508000BA0042188436863D3E7042101436963686BBA
S31508000BB001218843686300F00FFB0600686B384024
S31508000BC0CDD000F009FB801B6528F7D32AE0E86A38
S31508000BD00F218843216B0143E96268689A490140FD
S31508000BE0E06A0843A16A01436960286879080143F5
S31508000BF0296000F0F1FA06002868384014D100F0A0
S31508000C00EBFA801B6528F7D30CE00140296000F059
S31508000C10E3FA06002868384006D000F0DDFA801BA3
S31508000C206528F7D30320F2BD0020F2BD007000400E
S31508000C30F2B5040080208004010A844D02220127AF
S31508000C40FF43834B1E68F307DB0F009EB34258D25F
S31508000C507F4B1B681F4033463B437D4E33603368EA
S31508000C60DE07F60F009B9E4217D12368134005D076
S31508000C706B68F026B343A6681E436E602378DB07CD
S31508000C8000D499E06368012B02D12868014003E08B
S31508000C90022B03D12968084003D18BE0286802405B
S31508000CA0FBD068680321884303436B6000F094FA1D
S31508000CB00600606801280BD168680C2101400429E8
S31508000CC07AD000F089FA801B62498842F4D362E040
S31508000CD002280BD168680C21014008296CD000F065
S31508000CE07BFA801B5B498842F4D354E068680C2180
S31508000CF0014061D000F070FA801B56498842F5D34E
S31508000D0049E02368134005D06B68F026B343A6680C
S31508000D101E436E602378DB073FD56368012B02D13B
S31508000D202868014003E0022B03D12968084003D153
S31508000D3040E0286802403DD06868032188430343A1
S31508000D406B6000F049FA0600606801280BD16868F4
S31508000D500C210140042920D000F03EFA801B3D49B1
S31508000D608842F4D317E002280BD168680C210140A9
S31508000D70082912D000F030FA801B36498842F4D38D
S31508000D8009E068680C21014007D000F025FA801BAD
S31508000D9030498842F5D30320F2BD2D480068074044
S31508000DA0009838432A4908600868C107C90F00989F
S31508000DB0814201D00120F2BD2078400705D5686838
S31508000DC025490140E06808436860002000F0EDF915
S31508000DD00020F2BDFFFFFFFE30B589B004A800BFB2
S31508000DE022A1102200F000FA684600BF23A11022B3
S31508000DF000F0FAF919490A6819480C231340082B18
S31508000E0011D10F2304AC950C1D40645D6D46896AAB
S31508000E100B40E95CD20303D500F040F8604302E0DA
S31508000E2020001049484309B030BD000080B5FFF7DF
S31508000E30D3FF00BF15A1094A12681206120F895C72
S31508000E40C8400949086002BDFFFFC2FF0010024002
S31508000E500020024089130000FFF8FFFF041002403B
S31508000E6000127A0000093D00300000200203040544
S31508000E70060708090A0B0C0D0E0F101001020304D1
S31508000E8005060708090A0B0C0D0E0F1000000000D6
S31508000E900102030401020304060708090022030AE3
S31508000EA08B420BD203098B4219D243088B422ED2AE
S31508000EB0411A00D20146524110467047FF220902E4
S31508000EC03FD012068B4205D3121209028B4201D378
S31508000ED01212090203098B4219D300E0090AC30951
S31508000EE08B4201D3CB01C01A524183098B4201D3ED
S31508000EF08B01C01A524143098B4201D34B01C01AD8
S31508000F00524103098B4201D30B01C01A5241C3084F
S31508000F108B4201D3CB00C01A524183088B4201D3BE
S31508000F208B00C01A524143088B4201D34B00C01AAA
S31508000F305241884200D3401A5241CFD20146104648
S31508000F40704708B500F06AF908BDFEE710B58207D4
S31508000F50D30EFF249C40E2438907090E99400300FB
S31508000F6004D519481B071B0F083B00E017489B08C8
S31508000F709B00C01803681A401143016010BD80B574
S31508000F80FFF7E4FF01BD10B5401E802149048842E1
S31508000F9001D3012010BD0E4C606003210020C04320
S31508000FA0FFF7D4FF0020A0600721216010BD084983
S31508000FB00428086803D1042202430A607047042201
S31508000FC090430860704700001CED00E000E400E074
S31508000FD010E000E080B500F001F801BD7047FEE7BB
S31508000FE0FFB5002401232FE00525B5403D43039EA8
S31508000FF03560614D2E68019FFD432E404F68FF0303
S3150800100002D53700019E3E435B4F3E607E682E4008
S315080010104F68BF0302D53700019E3E43564F7E6098
S31508001020BE682E404F68FF0202D53700019E3E4338
S31508001030514FBE60FE6835404E68B60202D52E0096
S31508001040019D3543FD60641C0D682E00E64000D105
S315080010508AE00126A6402E400196019D002DF2D079
S315080010604D68022D01D0122D18D1E508AD0045199D
S315080010702E6A02966607F60E6F463E70029FBC46BB
S315080010806E4637780F26BE406746B743BC460F699B
S315080010906E463678B740664637432F62066865005F
S315080010A06F463D7003276D462D78AF40FD432E40B1
S315080010B0B4460E79B707BF0F6E463678B740664610
S315080010C0374307604E68012E05D0022E03D0112E35
S315080010D001D0122E13D186682E40B446CF686E46CC
S315080010E03678B74066463743876047680126A64084
S315080010F0B7434E6836091E40A6403E434660C6685A
S3150800110035408E686F463F78BE402E43C6604D68B0
S31508001110ED0098D5194D2D681D43184E3560356874
S315080011201D400295029D164DA608B600AD190395F9
S315080011302F68A5072E0F0F25B540AF439025ED055F
S31508001140A84201D1002550E70E4DA84201D101253C
S315080011504BE70D4DA84201D1022546E70B4DA842A3
S3150800116000D041E7032540E7FFBD0069084000D0ED
S315080011700120C0B270470000000401401810024068
S31508001180080001400004004800080048000C004818
S3150800119080B51348016810220A430260002000F057
S315080011A004F800F03DF8002002BD10B50400FFF772
S315080011B03DFEFA218900FFF771FEFFF7E4FE0022E3
S315080011C021000020C043FFF7DAFE002010BD0548C5
S315080011D00168491C016070470248006870470000B2
S315080011E0002002403800002070B4103A03D378C9B2
S315080011F0103A78C0FBD2530701D318C918C001D5D5
S3150800120008C908C0D20704D30B880380891C801C30
S31508001210002A01D50B78037070BC70477047FEE74B
S3150800122080B5012007490A6802430A600968084030
S3150800123000900098002200210020C043FFF79FFE7F
S3150800124001BD00001810024038B5FFF7C0FFFFF7D0
S31508001250C1FEFFF704FB1B4C1B4D08212800FFF7B6
S3150800126084FF002801D10120208010212800FFF7E3
S315080012707CFF002801D1022020809025ED058021E1
S3150800128049012800FFF771FF002801D103202080BB
S3150800129004212800FFF769FF002801D104202080D7
S315080012A020212800FFF761FF002801D105202080B2
S315080012B008212800FFF759FF002801D106202080C1
S315080012C031BD00BF0E000020000400481148016827
S315080012D001220A43026041680F4A0A4042600168D7
S315080012E00E4A0A40026001680D4A0A4002604168D7
S315080012F00C4A0A404260C16A0F229143C162016BDF
S31508001300094A0A400263416B012291434163002165
S3150800131081607047001002400CB8FF08FFFFF6FE18
S31508001320FFFFFBFFFFFFC0FFECFEFFFF30B401210C
S315080013300268001D002A0FD00368C31844680830E5
S315080013400C4202D04D466D1E64191D6825601B1D92
S31508001350241D121FECD0F8E730BC704710B50749BA
S3150800136079441831064C7C44163404E0081D0A6892
S31508001370891888470100A142F8D110BD080000006D
S3150800138018000000A9FFFFFF4000000098000000B9
S31508001390000000200000000000F00BF8002801D033
S315080013A0FFF7DCFF0020C046C046FFF7D1F900F082
S315080013B002F80120704780B500F002F801BDFEE78B
S315080013C00746384600F002F8FBE7FEE780B5C04658
S315080013D0C046024A11001820ABBEFBE726000200F1
S315080013E00148804701480047CD120008F11300085C
S315080013F0C046C046C046C046FFF7CEFFFEE7FEE73A
S31508001400FEE7FEE7FEE7FEE7FEE7FEE7FEE7FEE7A6
S31508001410FEE7FEE7FEE7FEE7FEE7FEE7FEE7FEE796
S31508001420FEE70000000000000000000000000000C9
S31508001430000000000000000000000000000000009E
S315080014400000000000000000000000000102030484
S315080014500607080900127A000000000000000000D4
S30908001460000000007A
S705080013F1EE
