S012000050584C3620312E3132612E73726563A5
S3150800000078040020F11500082B070008C707000828
S3150800001000000000000000000000000000000000D2
S31508000020000000000000000000000000CB070008E8
S315080000300000000000000000230E0008F11300086D
S31508000040BB15000800000000C71500080D160008BB
S315080000500F160008111600081316000815160008D2
S315080000600000000017160008191600081B160008DD
S31508000070511400081D1600081F160008000000008D
S3150800008021160008000000000000000023160008E2
S315080000900000000025160008271600082916000883
S315080000A0000000002B160008000000002D160008AE
S315080000B0F1B582B0884C0078C00763D560680C211A
S315080000C00140042907D060680C21014008290BD19A
S315080000D06068C00308D52068800353D50298406835
S315080000E000284FD10120FEBD20687C4901402160CF
S315080000F07B4F20683840206000F0E4FA0500794E0E
S315080001002068800306D500F0DDFA401BB042F7D31D
S315080001100320FEBD02984068012809D0002801D1B5
S3150800012020680BE00528206808D1F94301432160BF
S315080001302068802149020143216005E067490140A2
S3150800014021602068074027608027BF020298406820
S3150800015000280BD000F0B6FA05002068384011D107
S3150800016000F0B0FA401BB042F7D3D1E700F0AAFA84
S3150800017005002068384005D000F0A4FA401BB042BC
S31508000180F7D3C5E70125ED430298007880071BD50C
S31508000190F826F64360680C21014007D060680C21F8
S315080001A00140082928D16068C00325D42068800743
S315080001B003D50298C068012894D1206806400298A1
S315080001C00069C000304320600298007800074DD5CA
S315080001D00298006A0028606A3AD0012101436162E8
S315080001E000F070FA0500606A80073FD400F06AFAEA
S315080001F0401B6528F7D38BE70298C068002820685B
S3150800020018D001210143216000F05CFA029F00909A
S315080002102068800706D400F055FA0099401A652828
S31508000220F6D375E7206806403869C0003043206079
S315080002300297C9E72840206000F044FA06002068C3
S315080002408007C1D500F03EFA801B6528F7D35FE723
S315080002500540656200F036FA0500606A800705D534
S3150800026000F030FA401B6528F7D351E704250298B9
S31508000270006828406CD0A806E1690143E161E1699C
S315080002800840009000987C4F3868A10D01433960FA
S3150800029000F018FA06003868C00505D400F012FA0E
S315080002A0801B6528F7D333E7206A0121884320623B
S315080002B00426F643206A3040206200F003FA094F0C
S315080002C00090206A80070FD500F0FCF90099401AC3
S315080002D0B842F6D31CE700BF00100240FFFFFEFF3E
S315080002E0FFFFFBFF8913000002988068012808D0E9
S315080002F0002801D1206A09E00528206A06D128438A
S315080003002062206A01210143216205E00121884318
S315080003102062206A064026620298806800280BD070
S3150800032000F0D0F90600206A800711D400F0CAF957
S31508000330801BB842F7D3EBE600F0C4F90600206A42
S31508000340800705D500F0BEF9801BB842F7D3DFE673
S3150800035002980078C00621D502984069F826F64327
S3150800036001283AD1606B05436563606B012101433F
S31508000370616300F0A7F9029D0090606B800706D4C0
S3150800038000F0A0F90099401A6528F6D3C0E6606B1C
S315080003900640A869C0003043606302950298406A27
S315080003A0002867D061680C220A40082A00D199E61D
S315080003B08025AD049749022820684DD10140216067
S315080003C000F080F9029E07002068284026D000F039
S315080003D079F9C01B6528F7D39AE60421C9438842F0
S315080003E0606B09D101406163606B064002988069C1
S315080003F0C00030436063D1E705436563606B012144
S315080004008843606300F05EF90500606B8007C5D518
S3150800041000F058F9401B6528F7D379E6E06A0F2102
S315080004208843316B0143E162606891490140F06A93
S315080004300843B16A01436160206869080143216085
S3150800044000F040F906002068284013D100F03AF978
S31508000450801B6528F7D35BE60140216000F032F97E
S3150800046006002068284005D000F02CF9801B652876
S31508000470F7D34DE60020FEBD00700040F2B504003B
S3150800048080208004010A7B4D02227B4B1B68DE0715
S31508000490F60F009B9E4256D2774B1E680127BE4335
S315080004A0009F37431F6001261B683340009FBB42ED
S315080004B016D12368134005D06B68F027BB43A7689D
S315080004C01F436F6023681E401ED06368012B02D14C
S315080004D02868014003E0022B03D12968084003D1AC
S315080004E088E028680240FBD06868032188430343F4
S315080004F06B6000F0E7F806006068604F01280BD1D2
S3150800050068680C210140042976D000F0DBF8801BCE
S31508000510B842F5D30320F2BD02280AD168680C2137
S315080005200140082968D000F0CDF8801BB842F5D301
S31508000530F0E768680C2101405ED000F0C3F8801B24
S31508000540B842F6D3E6E72368134005D06B68F02671
S31508000550B343A6681E436E60012723683B403ED01E
S315080005606368012B02D12868014003E0022B03D1FE
S315080005702968084003D13DE0286802403AD06868F7
S315080005800321884303436B6000F09CF8060060680B
S3150800059001280BD168680C21014004291FD000F0FE
S315080005A091F8801B35498842F4D3B3E702280BD16A
S315080005B068680C210140082911D000F083F8801BD7
S315080005C02E498842F4D3A5E768680C21014006D075
S315080005D000F078F8801B29498842F5D39AE726481F
S315080005E00168B943009A0A43026000680740009808
S315080005F0874201D00120F2BD2078400705D56868FA
S315080006001F490140E06808436860002000F060F870
S315080006100020F2BDFFFFFFFE1A4B19681A480C228C
S315080006200A40082A00D0704730B50F221DA48D0C49
S315080006301540645D9B6AC90307D500BF1DA11A4012
S31508000640895C00F057F8604330BD20000F494843E5
S3150800065030BD000080B5FFF7DFFF00BF0DA1094AD6
S3150800066012681206120F895CC8400949086002BD63
S31508000670FFFFC2FF0010024000200240891300005D
S31508000680FFF8FFFF0410024000127A0000093D003F
S315080006901000002000000000010203040102030408
S315080006A00607080902030405060708090A0B0C0DC4
S315080006B00E0F10100102030405060708090A0B0CA1
S315080006C00D0E0F1001480068704700BF7400002027
S315080006D010B50400FFF7BEFFFA21890000F00AF8FA
S315080006E000F045F8002221000020C04300F03BF846
S315080006F0002010BD094214D088420FD30122030CF2
S3150800070001D100041204002300185B418B4200D378
S315080007105B1A5241F8D319001000704701000020F7
S31508000720704708B500F050F808BDFEE710B5C200DE
S3150800073018231340FF249C40E2438907090E994079
S31508000740030007D51A4B0007000F083880088000F9
S31508000750181803E017489B089B00C01803681A403E
S315080007601143016010BD80B5FFF7E0FF01BD10B56C
S31508000770401E80214904884201D3012010BD0E4C39
S31508000780606003210020C043FFF7D0FF0020A0606F
S315080007900721216010BD08490428086803D10422EE
S315080007A002430A60704704229043086070470000BD
S315080007B01CED00E000E400E010E000E080B500F089
S315080007C001F801BD7047FEE77047FEE7F8B504007B
S315080007D00025002C01D10120F2BD260040367068A4
S315080007E0002804D1B0603070200000F0F6FA10211D
S315080007F07068084003D1226804209368034000D03B
S315080008008AE077686A4B3B4002271F437760936804
S315080008109B079B0F012B05D11368DB070FD4D36801
S315080008201B040CD4D3681827BB43A7681F43D7609B
S31508000830226813699B009B0867681F431761226833
S31508000840D3688D4F1F40D760626B012A01D083029F
S3150800085000E000232269022A01D1009000E00095F9
S31508000860226AA0698003E769FF03074350033843F8
S315080008700343E0681843009B0343206B400018437A
S31508000880636A012B04D1002A02D10200080310432F
S31508000890A26AFF23C2339A4203D00300E06A1043D8
S315080008A018432268D3680343D360A26B0B069A42A7
S315080008B00DD0012A0BD0022A09D0032A07D0042A10
S315080008C005D0052A03D0062A01D0072A0CD12268AA
S315080008D053690727BB435361226853693827E75D85
S315080008E07F077F0F1F4357610222D2432368DB68C5
S315080008F0624C1C40844206D1B560706802400120F3
S31508000900104370600CE07068024011437160012565
S31508000910B0682843B06003E0706801437160012540
S315080009202800F2BDF8B50400002500200426216839
S31508000930896831401BD14021615C012917D0270005
S31508000940403701213970E169012904D0200000F0FF
S315080009508FF901000CD179684C4A0A40B10111435C
S315080009607960BD603D701C212268116088E0022014
S31508000970F2BD70B504004020205C012801D1022098
S3150800098070BD2500403501262E70200000F0E3F9E1
S31508000990010009D1200000F0ADF9010004D1696811
S315080009A0034A0A4016436E600021297070BD000094
S315080009B0FFFEFFFFF3B583B0044640342027002529
S315080009C00126406908280BD003980068C0683040A3
S315080009D005D06068074367602570012049E00C2050
S315080009E00090FFF76FFE0190039801680868009A67
S315080009F0024014D104980021C9438842F4D0002843
S31508000A0006D0FFF75FFE0199401A04998142EBD29E
S31508000A1060680421014361602570032029E003987A
S31508000A206268730213436360CA68C0231B011340DC
S31508000A3018D1026A002A15D10A68120712D58A68DF
S31508000A40520709D44A680C239A434A606168104AD7
S31508000A500A401643666005E061680F436760A1684F
S31508000A600E43A6608169002902D10C210068016045
S31508000A70002005B0F0BD00001902FEFFE7FF3F8326
S31508000A8021688A6816438E60F2BD0000FEF1FFFFFA
S31508000A90FFFEFFFF006808210160006C7047F8B58B
S31508000AA00400206801270821102504220368134042
S31508000AB002D04368134005D103680B402ED0436823
S31508000AC00B402BD0636C2B4003D1636C8E011E4305
S31508000AD06664C368C02636011E4019D1236A002BF6
S31508000AE016D10368194013D081680A4009D14168B4
S31508000AF00C2291434160606C7B4901403943616433
S31508000B0006E0606C202101436164A06C3843A06450
S31508000B10200000F083F90C202168086020688026F0
S31508000B20016831400BD04068304008D0606C29031A
S31508000B3001436164200000F072F9206806602068AD
S31508000B400168294012D0416829400FD0616B0129FC
S31508000B5002D0C1680F4007D0A16C02220A43A264E2
S31508000B600560200000F05CF920680560F1BDFCB561
S31508000B7004000025002600954020205C012801D1AC
S31508000B800220F6BD01204023E054226893685B07E3
S31508000B9060D40091096888400190544800994968D2
S31508000BA0534B9942916A019B44D00B439362A16BC4
S31508000BB08022520591421FD001291DD002291BD03F
S31508000BC0032919D0042917D0052915D0062913D0C9
S31508000BD0072911D022680721009B9B6857690F4097
S31508000BE0BB4209D053698B43536122685369009FFE
S31508000BF0BF6839401943516100990968102916D010
S31508000C00112930D102681143016000980068102844
S31508000C1029D1654800686549FFF76CFD0A214843F4
S31508000C200090009800281ED00098401EF8E7802102
S31508000C300904E7E79943916200990968102907D0E2
S31508000C40112910D11121C9430268114001600AE037
S31508000C505749F9E721004031496820220A43210013
S31508000C6040314A600126402025543000F6BD000078
S31508000C70F8B50500002000902868012481688907D6
S31508000C80890F012905D1016821402AD1C1680904C3
S31508000C9027D410278168474A0A401AD18168214318
S31508000CA08160414800684149FFF724FD01E000984A
S31508000CB0401E009000980028F9D1FFF703FD0600B2
S31508000CC02868006820400CD1FFF7FCFC801B03282D
S31508000CD0F6D3686C07436F64A86C0443AC640120C0
S31508000CE0F2BD0020F2BD0000FFFEFFFF082701400D
S31508000CF001100000F8B506003068032182680A4032
S31508000D00012A26D101240268224002D1C2681204AF
S31508000D101FD51025826805231340012B11D182683F
S31508000D2002231343836030680160FFF7CBFC07009A
S31508000D303068806820400CD0FFF7C4FCC01B03282D
S31508000D40F6D3706C05437564B06C0443B464012033
S31508000D50F2BD0020F2BDF8B50500286804278168B1
S31508000D6039401ED010248168394005D0816889072A
S31508000D7002D4816821438160FFF7A4FC0600286835
S31508000D80806838400DD0FFF79DFC801B0228F6D9F5
S31508000D90686C04436C64A86C01210143A9640120B2
S31508000DA0F2BD0020F2BD00001000002040420F00F6
S31508000DB0FFFF7FFF1700008080B5012015490A68EC
S31508000DC002430A6009680840009000980022002142
S31508000DD00020C043FFF7C7FC01BD00680E498842E2
S31508000DE000D0704780B586B0480D0A490A680243A4
S31508000DF00A60096808400090009803200190029054
S31508000E000020039001A99020C00500F00BF807B058
S31508000E1000BD0000181002400024014070477047CA
S31508000E207047FEE7FEB50B0000240121020031E001
S31508000E30052703E05A4FBA42FAD1032787403743BA
S31508000E402F6058480668019DE84306405D68ED0333
S31508000E5002D53500019E2E43524D2E606E6806401F
S31508000E605F68BF0302D53700019E3E436E60AE68D9
S31508000E7006405F68FF0202D53700019E3E43AE601A
S31508000E80EE6830405E68B60202D506000198304327
S31508000E90E860641C18680500E54074D00125A54083
S31508000EA00540019501980028F3D0A0006D462870EA
S31508000EB05868022801D0122811D1E00880001518B8
S31508000EC0286A6E4637781C263E400F27B740B84337
S31508000ED01F69BC4637006646BE4006432E62166842
S31508000EE0600003278740FD432E401F79BF07BF0FC9
S31508000EF08740374317605E68012E05D0022E03D05F
S31508000F00112E01D0122E0FD196682E40DF68874029
S31508000F103743976056680127A740BE435F683F0975
S31508000F200F40A74037435760D66835409E688640CD
S31508000F302E43D6605868C000ABD51B4800680843E6
S31508000F40194D286028680840029002981748A50895
S31508000F50AD0045192E68684607780C2038400F27DB
S31508000F608740BE439027FF05BA4201D1002765E7AF
S31508000F700F4FBA4201D1012760E70E4FBA4200D09F
S31508000F8058E702275AE7F7BD0069084000D0012054
S31508000F90C0B27047002A01D08161704781627047EC
S31508000FA0000C0048000401401810024008000140E7
S31508000FB00004004800080048F8B586B000F0B0F90B
S31508000FC000F0A8F880208002AB490A6802430A604C
S31508000FD00A681040059005988020C0020A680243F6
S31508000FE00A600968084005900598A44800900025FD
S31508000FF0019502959027FF0569463800FFF712FF0D
S315080010009F48009001260196029503240394694699
S315080010103800FFF707FF00940194029569463800E7
S31508001020FFF700FF18200090019502956946AD4824
S31508001030FFF7F8FEE32000900196029503946946AF
S31508001040A848FFF7EFFEA84CA84820616561A5618E
S31508001050E561266204206062A562E562256366632F
S31508001060E5632664666420001030FFF7AFFB009541
S315080010700096300301900620029069462000103041
S31508001080FFF775FD9A480068FA218900FFF732FBD9
S31508001090401E984A90423CD897494860974803684A
S315080010A01A40C0231B06134303608D60072008609F
S315080010B093486081934EA681E580002280213800FE
S315080010C0FFF768FF874D002240212800FFF762FFDF
S315080010D00022802149003800FFF75CFF002220210A
S315080010E02800FFF757FF00F047F88E20C000208140
S315080010F000F098F8A0898019208100F0C3F800F064
S315080011003BF8642000900098E065E06D0028F6D072
S31508001110FBE7FEE730B591B002240494012007905E
S31508001120102008900D9400250E95A02080030F909E
S31508001130109504A8FEF7BCFF002801D007200090F0
S3150800114001940295039501216846FFF797F900284F
S3150800115007D0FFF77FFAFA218900FFF7CBFAFFF7E6
S3150800116006FB0420FFF717FB002200210020C043DE
S31508001170FFF7F9FA11B030BD10B55B4C012000F04D
S315080011802AF86080002000F026F8A080C820800099
S315080011906188814202DA8021C90001E08021890044
S315080011A06181A188814202DA8020400101E0802025
S315080011B00001A08110BDE0B500900620029001292B
S315080011C002D18020400100E04F48019069464F480F
S315080011D0FFF7CDFC07BD70B506000121FFF7EBFF51
S315080011E0414C2000103000F0ABF820001030FFF71B
S315080011F099FB642120001030FFF7DCFB200010303B
S31508001200FFF748FC050020001030FFF7B2FB00216D
S315080012103000FFF7D0FF3E48454328003D49FFF719
S3150800122069FA70BDF0B53C488021090101613B4966
S3150800123080220A6013020360D30003612A4C00254A
S31508001240257025891701EE0702D51602066001E00A
S31508001250160206610360036126780F2E01D1076026
S3150800126007616D08761C2670F6B2102EEBDB258119
S315080012700A61F0BD00000000141002406C10000066
S31508001280928F0000F0B524481021016149010160E0
S31508001290224A0223136001231361134C002525708B
S315080012A025891027EE0702D50226166001E00226D8
S315080012B016611360136126780F2E01D10760076146
S315080012C06D08761C2670F6B2102EEBDB25810161BF
S315080012D0F0BD0548C16D002902D0C16D491EC16522
S315080012E07047000000040048140000200024014054
S315080012F010000020FFFFFF0010E000E020ED00E0F6
S315080013008628000024480000011000002400002060
S31508001310E40C0000FF0F00001800004818040048FD
S3150800132080B50648016810220A4302600020FFF7CC
S31508001330CFF9FFF741FD002002BD00000020024062
S31508001340FEB50600002400274020305C012801D1A4
S315080013500220FEBD01254021755430688168890741
S31508001360890F01290DD10168294002D1C1680904F4
S3150800137007D530004030416820220A4342600127E1
S3150800138030E0310040314B68184A1A4002231343B3
S315080013904B608021090601918168019A0A4382609F
S315080013A0FFF790F900960600009800688068019992
S315080013B001400FD0FFF786F9801B0228F4D9009860
S315080013C0403041680222914310220A434260047069
S315080013D00120FEBD009840304168022291430D432A
S315080013E04560009E402034543800FEBDFFFEFFFFD6
S315080013F010B500F039F8FFF7E1F9FFF76AFF17486B
S31508001400FFF74DFB10211648FFF7BEFD002801D156
S3150800141002201AE09024E40504212000FFF7B4FD19
S31508001420002801D1042010E020212000FFF7ACFDA0
S31508001430002801D1052008E008212000FFF7A4FDB7
S31508001440002801D1062000E000200649088010BDCA
S3150800145080B50248FFF723FB01BD000024000020E9
S31508001460000400481A00002002480168491C01606F
S31508001470704700BF740000201148016801220A4322
S31508001480026041680F4A0A40426001680E4A0A40F3
S31508001490026001680D4A0A40026041680C4A0A4027
S315080014A04260C16A0F229143C162016B094A0A4030
S315080014B00263416B012291434163002181607047B9
S315080014C0001002400CB8FF08FFFFF6FEFFFFFBFF07
S315080014D0FFFFC0FFECFEFFFF70B40123002413E0FA
S315080014E00168001D194202D04D466D1E49190C604F
S315080014F0091D121F042AFAD20D00960701D50C8081
S31508001500AD1C1A4000D02C700268001D002AE7D1D5
S3150800151070BC704730B401220EE00368C3184468F3
S315080015200830144202D04D466D1E64191D682560A8
S315080015301B1D241D091FF9D10168001D0029ECD1C6
S3150800154030BC704710B5074979441831064C7C44BD
S31508001550163404E0081D0A68891888470100A14264
S31508001560F8D110BD08000000280000006DFFFFFF3D
S3150800157064000000140000200000000099FFFFFF2F
S3150800158014000000580000000000002000000000C1
S3150800159000F00DF8002801D0FFF7D4FF00BF00BF08
S315080015A0002000BF00BFFFF707FD00F002F801208A
S315080015B0704780B500F002F801BDFEE707463846D9
S315080015C000F002F8FBE7FEE780B500BF00BF024A5D
S315080015D011001820ABBEFBE7260002000000000041
S315080015E000000000010203040607080900127A0039
S315080015F00148804701480047791400080116000889
S3150800160000BF00BF00BF00BFFFF7C2FFFEE7FEE74F
S31508001610FEE7FEE7FEE7FEE7FEE7FEE7FEE7FEE794
S31308001620FEE7FEE7FEE7FEE7FEE7FEE7FEE76B
S70508001601DB
